:100000000C942A000C9434000C9434000C943400AA
:100010000C9434000C9434000C9434000C94340090
:100020000C9434000C9434000C9434000C94340080
:100030000C9434000C9434000C9434000C94340070
:100040000C9434000C9434000C9434000C94340060
:100050000C94340011241FBECFE5D8E0DEBFCDBF25
:100060000E9436000C94E8000C9400000F931F933C
:10007000CF93DF930E94840081E00E948A0008EC05
:1000800010E00E948F0082E00E94AA00C0E0D0E051
:1000900081E60E94B80088E893E1F8013197F1F712
:1000A0000197D9F782E60E94B80088E893E1F80149
:1000B0003197F1F70197D9F72196C530D10541F76E
:1000C0000E94C7000E948F0083E00E94AA00C0E047
:1000D000D0E081E60E94B80088E893E1F80131970A
:1000E000F1F70197D9F782E60E94B80088E893E11A
:1000F000F8013197F1F70197D9F72196C530D1056D
:1001000041F70E94C700BDCF80E280B911B884E4F6
:1001100086BF089590E0880F991F82B9089584EAF8
:1001200086BF06B607FC08C081B1887F8830C9F752
:1001300081B1887F8031A9F70895880F816083B9E4
:1001400084EC86BF06B607FC04C081B1887F80348A
:10015000C9F7089590E0880F991F83B984E886BF96
:1001600006B607FC04C081B1887F8831C9F70895BD
:1001700083B984E886BF06B607FC08C081B1887FD2
:100180008832C9F781B1887F883BA9F7089584ED4B
:1001900086BF089506B607FC08C081B1887F803805
:1001A000C9F781B1887F8035A9F784EC86BF83B118
:1001B000089506B607FC08C081B1887F8838C9F762
:1001C00081B1887F8835A9F784E886BF83B1089517
:0401D000F894FFCFD1
:00000001FF
