:100000000C942A000C9434000C9434000C943400AA
:100010000C9434000C9434000C9434000C94340090
:100020000C9434000C9434000C9434000C94340080
:100030000C9434000C9434000C9434000C94340070
:100040000C9434000C9434000C9434000C94340060
:100050000C94340011241FBECFE5D8E0DEBFCDBF25
:100060000E9436000C9499000C9400001F938FE0BE
:1000700087BBA49AA59AAC98AD988FEF81BB12BEAE
:1000800085E083BF20E030E040E011E0EAE1F0E10C
:1000900008B600FEFDCF12BE18BF4F5F4E3358F0BA
:1000A0002F5F3F4F2436310514F023E630E082B352
:1000B0008F2782BB40E0C9016AE070E00E947200B5
:1000C00068BBAD9A8E2F8A95F1F7AD98C9016AE0A9
:1000D00070E00E94720088BBAC9A8E2F8A95F1F76F
:1000E000AC98D6CF97FB092E07260AD077FD04D00F
:1000F0000CD006D000201AF4709561957F4F0895BA
:10010000F6F7909581959F4F0895AA1BBB1B51E16F
:1001100007C0AA1FBB1FA617B70710F0A61BB70B77
:10012000881F991F5A95A9F780959095BC01CD011C
:060130000895F894FFCFD2
:00000001FF
