:100000000C942A000C943F000C943F000C943F0089
:100010000C943F000C943F000C943F000C943F0064
:100020000C943F000C943F000C943F000C943F0054
:100030000C943F000C943F000C943F000C943F0044
:100040000C943F000C943F000C943F000C943F0034
:100050000C943F0011241FBECFE5D8E0DEBFCDBF1A
:1000600010E0A0E6B0E0EEE2F3E002C005900D92F1
:10007000AE36B107D9F70E94FB000C9495010C94A1
:100080000000AE98AF9A40E157E2FA013197F1F7DC
:10009000282F207F28BBFA013197F1F7AF98FA019A
:1000A0003197F1F7AF9AFA013197F1F790E024E038
:1000B000880F991F2A95E1F788BBAF98089581E0D2
:1000C0000E944100089587B3806F87BB84B3806C22
:1000D00084BB88E20E94410082E00E9441008EE0E1
:1000E0000E9441000E945F000895AE9AAF9A40E1DD
:1000F00057E2FA013197F1F7282F207F28BBFA0148
:100100003197F1F7AF98FA013197F1F7AF9AFA0109
:100110003197F1F790E034E0880F991F3A95E1F7B5
:1001200088BBAF980895CF93DF93EC0102C00E9483
:10013000750089918823D9F7DF91CF91089588239D
:1001400011F480E805C0813011F480EC01C080E03A
:10015000862B0E94410008950F931F93CF93DF9346
:10016000142F052F0E949F00212F302FC901EC0171
:1001700002C00E94750089918823D9F7DF91CF9141
:100180001F910F9108959B01AC0188E18AB986E81F
:1001900080BD84E0220F331F441F551F8A95D1F77D
:1001A00060E072E18AE790E00E947301215029B972
:1001B00008955D9BFECF8CB90895FC0104C05D9B42
:1001C000FECF8CB9319680818823C9F708955F9B53
:1001D000FECF8CB10895FC015F9BFECF8CB1808374
:1001E00005C05F9BFECF8CB18183319680818823CF
:1001F000C1F710820895EF92FF920F931F93DF9340
:10020000CF93CDB7DEB769970FB6F894DEBF0FBEB8
:10021000CDBFFE0131968AE0DF011D928A95E9F794
:1002200088E6898385E68A838E9A969860E076E9E7
:1002300080E090E00E94C30088EE93E028EC30E07C
:10024000F9013197F1F70197D9F70E94630080E037
:1002500062E040E650E00E94AC00CE0101960E94B0
:10026000DD008BE0E82EF12CEC0EFD1E08EC10E01A
:10027000C7010E94EB0081E061E0A7010E94AC0091
:1002800088EE93E0F8013197F1F70197D9F70E94D2
:10029000E70028EE33E0F8013197F1F721503040C4
:1002A000D1F7863471F481E061E00E949F0086E41A
:1002B0000E947500969A81E063E00E949F0086E4A8
:1002C0000FC08234A9F681E062E00E949F0082E4C0
:1002D0000E947500969881E063E00E949F0082E48E
:1002E0000E947500C5CFA1E21A2EAA1BBB1BFD01FF
:1002F0000DC0AA1FBB1FEE1FFF1FA217B307E40705
:10030000F50720F0A21BB30BE40BF50B661F771F5C
:10031000881F991F1A9469F760957095809590953C
:0E0320009B01AC01BD01CF010895F894FFCF01
:0E032E0055415254205245434945564544001E
:00000001FF
