:100000000C942A000C9434000C9434000C943400AA
:100010000C9434000C9434000C9434000C94340090
:100020000C9434000C9434000C9434000C94340080
:100030000C9434000C9434000C9434000C94340070
:100040000C9434000C9434000C9434000C94340060
:100050000C94340011241FBECFE5D8E0DEBFCDBF25
:100060000E9436000C948F000C940000CF93DF9315
:100070008FE087BB8A988B98A49AA59AA29AA39A94
:10008000AC98AD98AA98AB9820E030E0C0E9D1E0F8
:100090004AE1829B0EC088EE93E0FE013197F1F7B2
:1000A0000197D9F72F5F3F4F2436310510F023E633
:1000B00030E0839B09C088EE93E0FE013197F1F7B1
:1000C0000197D9F721503040C9016AE070E00E94E1
:1000D0007B0068BBAD9A842F8A95F1F7AD98C90172
:1000E0006AE070E00E947B0088BBAC9A842F8A95FE
:1000F000F1F7AC98CECFAA1BBB1B51E107C0AA1FDA
:10010000BB1FA617B70710F0A61BB70B881F991FB8
:100110005A95A9F780959095BC01CD010895F89462
:02012000FFCF0F
:00000001FF
