:100000000C942A000C9434000C9434000C943400AA
:100010000C9434000C9434000C9434000C94340090
:100020000C9434000C9434000C9434000C94340080
:100030000C9434000C9434000C9434000C94340070
:100040000C9434000C9434000C9434000C94340060
:100050000C94340011241FBECFE5D8E0DEBFCDBF25
:100060000E9436000C944A000C94000081B3806F0B
:1000700081BB82B3806F82BB40EF20E931E082B365
:10008000842782BB84EC99E0F9013197F1F701975D
:08009000D9F7F5CFF894FFCF7A
:00000001FF
