:100000000C942A000C9434000C9434000C943400AA
:100010000C9434000C9434000C9434000C94340090
:100020000C9434000C9434000C9434000C94340080
:100030000C9434000C9434000C9434000C94340070
:100040000C9434000C9434000C9434000C94340060
:100050000C94340011241FBECFE5D8E0DEBFCDBF25
:100060000E943E000C9459000C9400008CE683BF63
:1000700012BE1CBEBB9A08958CBF0895CF93DF9328
:100080000E943600C8ECD0E080E80E943C0088E87E
:1000900093E1FE013197F1F70197D9F780E40E94CF
:1000A0003C0088E893E1FE013197F1F70197D9F719
:0600B000EBCFF894FFCF36
:00000001FF
