:100000000C942A000C9434000C9434000C943400AA
:100010000C9434000C9434000C9434000C94340090
:100020000C9434000C9434000C9434000C94340080
:100030000C9434000C9434000C9434000C94340070
:100040000C9434000C9434000C9434000C94340060
:100050000C94340011241FBECFE5D8E0DEBFCDBF25
:100060000E9436000C94AA000C9400000E944600E6
:100070008D9A82E00E944C000E948C00813611F41F
:10008000959AFACF8236C1F79598F6CF80E280B97B
:1000900011B884E486BF089590E0880F991F82B953
:1000A000089584EA86BF06B607FC08C081B1887F40
:1000B0008830C9F781B1887F8031A9F70895880F0A
:1000C000816083B984EC86BF06B607FC04C081B1A9
:1000D000887F8034C9F7089590E0880F991F83B90D
:1000E00084E886BF06B607FC04C081B1887F8831EA
:1000F000C9F7089583B984E886BF06B607FC08C02F
:1001000081B1887F8832C9F781B1887F883BA9F7A0
:10011000089584ED86BF089506B607FC08C081B136
:10012000887F8038C9F781B1887F8035A9F784EC52
:1001300086BF83B1089506B607FC08C081B1887FE9
:100140008838C9F781B1887F8835A9F784E886BFE8
:0801500083B10895F894FFCF7C
:00000001FF
