:100000000C942A000C9434000C9434000C943400AA
:100010000C9434000C9434000C9434000C94340090
:100020000C9434000C9434000C9434000C94340080
:100030000C9434000C9434000C9434000C94340070
:100040000C9434000C9434000C9434000C94340060
:100050000C94340011241FBECFE5D8E0DEBFCDBF25
:100060000E9436000C9442000C9400008E9A12BA42
:1000700080B390B382FF02C082B382BB93FFF8CFFC
:08008000969AF6CFF894FFCF29
:00000001FF
