:100000000C942A000C9434000C9434000C943400AA
:100010000C9434000C9434000C9434000C94340090
:100020000C9434000C9434000C9434000C94340080
:100030000C9434000C9434000C9434000C94340070
:100040000C9434000C9434000C9434000C94340060
:100050000C94340011241FBECFE5D8E0DEBFCDBF25
:100060000E9436000C944C000C94000080EF81BB81
:1000700012BA28EC30E0979A80E593ECF9013197B9
:10008000F1F70197D9F7979880E593ECF90131974B
:0C009000F1F70197D9F7EFCFF894FFCFFC
:00000001FF
