:100000000C942A000C9447000C9447000C94470071
:100010000C9447000C9447000C9447000C94470044
:100020000C9447000C9447000C9447000C94470034
:100030000C9447000C9406010C9447000C94470064
:100040000C9447000C9447000C9447000C94470014
:100050000C94470011241FBECFE5D8E0DEBFCDBF12
:1000600010E0A0E6B0E0E0E2F3E002C005900D92FF
:10007000A437B107D9F710E0A4E7B0E001C01D92A2
:10008000A637B107E1F70E9415010C948E010C947C
:100090000000AE98AF9A40E157E2FA013197F1F7CC
:1000A000282F207F28BBFA013197F1F7AF98FA018A
:1000B0003197F1F7AF9AFA013197F1F790E024E028
:1000C000880F991F2A95E1F788BBAF98089581E0C2
:1000D0000E944900089587B3806F87BB84B3806C0A
:1000E00084BB88E20E94490082E00E9449008EE0C1
:1000F0000E9449000E9467000895AE9AAF9A40E1BD
:1001000057E2FA013197F1F7282F207F28BBFA0137
:100110003197F1F7AF98FA013197F1F7AF9AFA01F9
:100120003197F1F790E034E0880F991F3A95E1F7A5
:1001300088BBAF980895CF93DF93EC0102C00E9473
:100140007D0089918823D9F7DF91CF910895882385
:1001500011F480E805C0813011F480EC01C080E02A
:10016000862B0E94490008950F931F93CF93DF932E
:10017000142F052F0E94A700212F302FC901EC0159
:1001800002C00E947D0089918823D9F7DF91CF9129
:100190001F910F9108959B01AC0188E98AB986E807
:1001A00080BD64E0220F331F441F551F6A95D1F7AD
:1001B00060E072E18AE790E00E946C01C901DA0117
:1001C000215029B90197A109B109892F9A2FAB2F85
:1001D000BB2780BD789408955D9BFECF8CB90895B0
:1001E000FC0104C05D9BFECF8CB9319680818823D1
:1001F000C9F708955F9BFECF8CB10895FC015F9B0A
:10020000FECF8CB181938823D1F708951F920F926E
:100210000FB60F9211248F938CB1809374008F913D
:100220000F900FBE0F901F901895FF920F931F9382
:10023000CF93DF938A988E9A8C9A8D9A8F9A9698FC
:1002400060E076E980E090E00E94CB000E946B00C5
:1002500080E062E040E650E00E94B40084E5F82EC1
:1002600000E210E1C8ECD0E081E060E00E94A7006D
:10027000809174000E947D0080917400863411F496
:10028000969A1FC0823411F496981BC0823519F4D7
:1002900082B3802704C08C3421F482B3805882BB9F
:1002A00010C0833571F4F09275008EE690E00E94E4
:1002B000F00081E065E00E94A700809175000E9437
:1002C0007D0082B3812782BB88EE93E0FE013197E7
:1002D000F1F70197D9F7C8CFA1E21A2EAA1BBB1BD1
:1002E000FD010DC0AA1FBB1FEE1FFF1FA217B30702
:1002F000E407F50720F0A21BB30BE40BF50B661F18
:10030000771F881F991F1A9469F7609570958095DB
:1003100090959B01AC01BD01CF010895F894FFCFEA
:10032000424C5545544F4F54482052454300484590
:040330004C4C4F00E2
:00000001FF
