:100000000C942A000C9434000C9434000C943400AA
:100010000C9434000C9434000C9434000C94340090
:100020000C9434000C9434000C9434000C94340080
:100030000C9434000C9434000C9434000C94340070
:100040000C9434000C9434000C9434000C94340060
:100050000C94340011241FBECFE5D8E0DEBFCDBF25
:100060000E9450000C9478010C94000080E487B941
:1000700086E886B9089597B1907E97B997B1877051
:10008000892B87B9369A3699FECF24B135B1C9018B
:1000900008958AE685BD14BC8F9A089583BD08959E
:1000A000AF92BF92DF92EF92FF920F931F93CF9385
:1000B000DF9380EF81BB0E94490012BA8A988B9827
:1000C0008FE087BBA49AA59AAC98AD98A39AA29A00
:1000D000AB98AA980E943600C0E0D0E09DE0D92EEF
:1000E00088ECA82EB12C81E00E943B00AA2797FD46
:1000F000A095BA2FBC01CD0124EF31E040E050E0E3
:100100000E94F5002FEF33E040E050E00E9427010D
:10011000122F032FF42EE52ECF30D10514F08FEFE0
:1001200006C0CA30D10514F482E301C080E80E9401
:100130004E00612F702F8F2D9E2D2AE030E040E081
:1001400050E00E94270128BBAD9A8D2D8A95F1F7CA
:10015000AD98612F702F8F2D9E2D2AE030E040E06A
:1001600050E00E94270168BBAC9A8D2D8A95F1F76B
:10017000AC988D2D8A95F1F7829B08C084EC99E0AC
:10018000F5013197F1F70197D9F72196839B08C0C4
:1001900084EC99E0F5013197F1F70197D9F72197B0
:1001A000CE01C531D10514F084E190E0EC0197FF58
:1001B00002C0C0E0D0E0CE016AE070E00E9414010D
:1001C00068BBAA9A8D2D8A95F1F7AA98CE016AE0AC
:1001D00070E00E94140188BBAB9A8D2D8A95F1F7CF
:1001E000AB988D2D8A95F1F77ECF629FD001739FDA
:1001F000F001829FE00DF11D649FE00DF11D929FC3
:10020000F00D839FF00D749FF00D659FF00D992701
:10021000729FB00DE11DF91F639FB00DE11DF91F25
:10022000BD01CF011124089597FB092E07260AD09E
:1002300077FD04D027D006D000201AF47095619580
:100240007F4F0895F6F7909581959F4F089597FBFE
:10025000092E05260ED057FD04D028D00AD0001C48
:1002600038F450954095309521953F4F4F4F5F4F53
:100270000895F6F790958095709561957F4F8F4F13
:100280009F4F0895AA1BBB1B51E107C0AA1FBB1FAC
:10029000A617B70710F0A61BB70B881F991F5A9512
:1002A000A9F780959095BC01CD010895A1E21A2E81
:1002B000AA1BBB1BFD010DC0AA1FBB1FEE1FFF1F0A
:1002C000A217B307E407F50720F0A21BB30BE40B5A
:1002D000F50B661F771F881F991F1A9469F76095A1
:1002E0007095809590959B01AC01BD01CF0108955B
:0402F000F894FFCFB0
:00000001FF
