:100000000C942A000C9434000C9434000C943400AA
:100010000C9434000C9434000C9434000C94340090
:100020000C9434000C9434000C9434000C94340080
:100030000C9434000C9434000C9434000C94340070
:100040000C9434000C9434000C9434000C94340060
:100050000C94340011241FBECFE5D8E0DEBFCDBF25
:100060000E9436000C9464000C94000080EC81BB6C
:100070008FEF87BB8FE084BB85BB20E030E040E999
:1000800051E0829B09C080ED97E0FA013197F1F7CA
:100090000197D9F72F5F3F4F839B09C080ED97E011
:1000A000FA013197F1F70197D9F721503040C90192
:1000B0002A30310514F089E090E09C0197FF02C0DE
:0C00C00020E030E028BBDDCFF894FFCF3B
:00000001FF
