:100000000C942A000C943F000C943F000C943F0089
:100010000C943F000C943F000C943F000C943F0064
:100020000C943F000C943F000C943F000C943F0054
:100030000C943F000C943F000C943F000C943F0044
:100040000C943F000C943F000C943F000C943F0034
:100050000C943F0011241FBECFE5D8E0DEBFCDBF1A
:1000600010E0A0E6B0E0E2EBF1E002C005900D92F6
:10007000AC36B107D9F70E94BA000C94D7000C94A3
:100080000000CF93DF93A0E6B0E040E050E0C1E095
:10009000D0E01BBA2BB3CE010C9002C0880F991F81
:1000A0000A94E2F7282B2BBBE6E6F0E020E030E0F4
:1000B00089B3608190E0062E02C0959587950A94D9
:1000C000E2F780FF43C0CE0102C0880F991F6A95F6
:1000D000E2F7BC0189B390E086239723892BD1F7FF
:1000E00041305105A9F04230510509F14115510542
:1000F00069F52115310519F427E030E037C02130CA
:10010000310519F029E030E031C028E030E02EC0A0
:100110002115310519F424E030E028C021303105E3
:1001200019F026E030E022C025E030E01FC02115A4
:10013000310519F421E030E019C02130310519F002
:1001400023E030E013C022E030E010C02F5F3F4FCB
:1001500032962330310509F0ABCF4F5F5F4F1296D7
:100160004330510509F095CF20E030E0C901DF911F
:10017000CF910895CF93DF9387B38F6087BB84B30C
:100180008C6384BB18BAAA9A8AB38C618ABB8AB37F
:100190008F718ABBC0E9D1E00E94410088BB84EF27
:1001A00091E0FE013197F1F70197D9F7F5CFF89477
:0201B000FFCF7F
:0C01B20002000300040007000600050026
:00000001FF
