:100000000C9434000C943E000C943E000C943E0082
:100010000C943E000C943E000C943E000C943E0068
:100020000C943E000C943E000C943E000C943E0058
:100030000C943E000C943E000C943E000C943E0048
:100040000C943E000C943E000C943E000C943E0038
:100050000C943E000C943E000C943E000C943E0028
:100060000C943E000C943E0011241FBECFEFD8E04C
:10007000DEBFCDBF0E94F1000C9409010C9400007A
:100080008436910529F08059914011F48CE001C02B
:1000900088E48093B80084E48093BC001092B90097
:1000A000089590E0880F991F8093BA00089584EA1C
:1000B0008093BC008091BC0087FD0AC08091B9008C
:1000C000887F8830B9F78091B900887F803191F7B7
:1000D000089590E0880F991F8093BB0084E8809377
:1000E000BC008091BC0087FFFCCF8091B900887F65
:1000F000883129F48091B900887F803291F3089586
:10010000880F81608093BB0084E88093BC0080915D
:10011000BC0087FD0AC08091B900887F8034B9F7A0
:100120008091B900887F883491F708958093BB004F
:1001300084E88093BC008091BC0087FD0AC0809158
:10014000B900887F8832B9F78091B900887F883BF1
:1001500091F708958091BC0087FD0AC08091B90095
:10016000887F8038B9F78091B900887F803591F712
:1001700084EC8093BC008091BB0008958091BC000A
:1001800087FD0AC08091B900887F8838B9F78091CF
:10019000B900887F883591F784E88093BC0080910E
:1001A000BB00089584E98093BC0008958093BA0051
:1001B00008958295880F880F807C84688093BC00A6
:1001C0008091BC0087FFFCCF8091BB000895809395
:1001D000BB0084E88093BC008091BC0087FFFCCF0B
:1001E000089580ED8093BA0090E034EC24E83093D9
:1001F000BC008091BC0087FFFCCF8091BB00909336
:10020000BB002093BC008091BC0087FFFCCF9F5FA8
:06021000EECFF894FFCFD1
:00000001FF
