:100000000C9434000C943E000C943E000C943E0082
:100010000C943E000C943E000C943E000C943E0068
:100020000C943E000C943E000C943E000C943E0058
:100030000C943E000C943E000C943E000C943E0048
:100040000C943E000C943E000C943E000C943E0038
:100050000C943E000C943E000C943E000C943E0028
:100060000C943E000C943E0011241FBECFEFD8E04C
:10007000DEBFCDBF0E944C000C945E000C940000CB
:10008000249A84B1837D84B980E48CBD08950DB435
:1000900007FEFDCF8EB50895529A5A98249A84B1DE
:1000A000837D84B980E48CBD0DB407FEFDCF8EB591
:1000B000813411F45A9AF8CF5A98F6CFF894FFCFBA
:00000001FF
