:100000000C942A000C943F000C943F000C943F0089
:100010000C943F000C943F000C943F000C943F0064
:100020000C943F000C943F000C943F000C943F0054
:100030000C943F000C943F000C943F000C943F0044
:100040000C943F000C943F000C943F000C943F0034
:100050000C943F0011241FBECFE5D8E0DEBFCDBF1A
:1000600010E0A0E6B0E0E4E2F2E002C005900D92FC
:10007000A636B107D9F70E94E4000C9410010C9445
:100080000000AE98AF9A40E157E2FA013197F1F7DC
:10009000282F207F28BBFA013197F1F7AF98FA019A
:1000A0003197F1F7AF9AFA013197F1F790E024E038
:1000B000880F991F2A95E1F788BBAF98089581E0D2
:1000C0000E944100089587B3806F87BB84B3806C22
:1000D00084BB88E20E94410082E00E9441008FE0E0
:1000E0000E9441000E945F000895AE9AAF9A40E1DD
:1000F00057E2FA013197F1F7282F207F28BBFA0148
:100100003197F1F7AF98FA013197F1F7AF9AFA0109
:100110003197F1F790E034E0880F991F3A95E1F7B5
:1001200088BBAF980895CF93DF93EC0102C00E9483
:10013000750089918823D9F7DF91CF91089588239D
:1001400011F480E805C0813011F480EC01C080E03A
:10015000862B0E94410008950F931F93CF93DF9346
:10016000142F052F0E949F00212F302FC901EC0171
:1001700002C00E94750089918823D9F7DF91CF9141
:100180001F910F91089588E18AB986E880BD83E3C5
:1001900089B908955D9BFECF8CB90895FC0104C018
:1001A0005D9BFECF8CB9319680818823C9F7089575
:1001B0005F9BFECF8CB10895FC015F9BFECF8CB19D
:1001C00081938823D1F708951F938D9A0E9463002D
:1001D0000E945F0080E061E040E650E00E94AC00D9
:1001E0000E94C30087E50E94CA000E94D800182F11
:1001F00081E063E00E949F00812F0E94750080E2F1
:100200000E947500113411F4959AEFCF123469F7FA
:10021000959882E40E94750080E20E947500E5CF07
:04022000F894FFCF80
:06022400454E5445520056
:00000001FF
