:100000000C942A000C9434000C9434000C943400AA
:100010000C9434000C9434000C9434000C94340090
:100020000C9434000C9434000C9434000C94340080
:100030000C9434000C9434000C9434000C94340070
:100040000C9434000C9434000C9434000C94340060
:100050000C94340011241FBECFE5D8E0DEBFCDBF25
:100060000E944E010C947E010C9400008436910590
:1000700029F08059914011F482E001C080E280B9FA
:1000800084E486BF11B8089590E0880F991F82B963
:10009000089584EA86BF06B607FC08C081B1887F50
:1000A0008830C9F781B1887F8031A9F7089590E041
:1000B000880F991F83B984E886BF06B607FEFDCF77
:1000C00081B1887F883121F481B1887F8032A9F3A2
:1000D0000895880F816083B984E886BF06B607FC5F
:1000E00008C081B1887F8034C9F781B1887F8834A6
:1000F000A9F7089583B984E886BF06B607FC08C04F
:1001000081B1887F8832C9F781B1887F883BA9F7A0
:10011000089506B607FC08C081B1887F8038C9F70A
:1001200081B1887F8035A9F784EC86BF83B10895BB
:1001300006B607FC08C081B1887F8838C9F781B14D
:10014000887F8835A9F784E886BF83B1089584E95C
:1001500086BF0895AE98AF9A40E157E2FA01319711
:10016000F1F7282F207F28BBFA013197F1F7AF98DC
:10017000FA013197F1F7AF9AFA013197F1F790E070
:1001800024E0880F991F2A95E1F788BBAF9808955E
:1001900081E00E94AA00089587B3806F87BB84B373
:1001A000806C84BB88E20E94AA0082E00E94AA00C0
:1001B0008FE00E94AA000E94C8000895AE9AAF9AEC
:1001C00040E157E2FA013197F1F7282F207F28BB51
:1001D000FA013197F1F7AF98FA013197F1F7AF9A39
:1001E000FA013197F1F790E034E0880F991F3A95C2
:1001F000E1F788BBAF980895CF93DF93EC0102C07D
:100200000E94DE0089918823D9F7DF91CF9108956C
:10021000882311F480E805C0813011F480EC01C01E
:1002200080E0862B0E94AA0008950F931F93CF931E
:10023000DF93142F052F0E940801212F302FC901B1
:10024000EC0102C00E94DE0089918823D9F7DF917A
:10025000CF911F910F910895272F382F492F5527A0
:1002600021B960B9089584EA86BF06B607FEFDCFBE
:10027000089583B984E886BF06B607FEFDCF0895CA
:100280008295880F880F807C846886BF06B607FE3B
:10029000FDCF83B1089584E986BF08950E94CC0004
:1002A0000E94C8008FEF87BB84BB88E085BB11B874
:1002B00088E480B920E137E2F4EAE1ED64E874E92A
:1002C00048EC50E005C0CA010197F1F721503040D9
:1002D00021153105C1F7F6BF06B607FEFDCFE3B91C
:1002E00066BF06B607FEFDCF66BF06B607FEFDCFAA
:1002F00083B176BF88BB20E137E2E5CFF894FFCF2A
:00000001FF
