:100000000C942A000C9434000C9434000C943400AA
:100010000C9434000C9434000C9434000C94340090
:100020000C9434000C9434000C9434000C94340080
:100030000C9434000C9434000C9434000C94340070
:100040000C9434000C9434000C9434000C94340060
:100050000C94340011241FBECFE5D8E0DEBFCDBF25
:100060000E9436000C9475000C94000084B38C63DD
:1000700084BB87B38F6087BB88B388BB81B38C6E2A
:1000800081BB85B38C6385BB82B382BB20E030E04B
:1000900060E971E080B340B382FF0BC0959A969AF5
:1000A00080ED97E0FB013197F1F70197D9F72F5FCA
:1000B0003F4F43FF0DC082B312BA82B312BA80ED34
:1000C00097E0FB013197F1F70197D9F721503040C4
:1000D000C9012A30310514F089E090E09C0197FFB6
:0E00E00002C020E030E028BBD5CFF894FFCF5F
:00000001FF
