:100000000C942A000C943F000C943F000C943F0089
:100010000C943F000C943F000C943F000C943F0064
:100020000C943F000C943F000C943F000C943F0054
:100030000C943F000C943F000C943F000C943F0044
:100040000C943F000C943F000C943F000C943F0034
:100050000C943F0011241FBECFE5D8E0DEBFCDBF1A
:1000600010E0A0E6B0E0E2EFF3E002C005900D92F0
:10007000AC37B107D9F70E9462010C94F7010C94D8
:10008000000080E487B986E886B9089597B1907E2C
:1000900097B997B18770892B87B9369A3699FECF71
:1000A00024B135B1C9010895D498D398D298D79A7C
:1000B000D69AD59ADC9ADB9ADA9ADF9ADE9ADD9A9A
:1000C0000895DF98DE9ADD9ACC990BC084EC99E014
:1000D00028EC30E0F9013197F1F70197D9F781E386
:1000E00012C0CB990BC084EC99E028EC30E0F90108
:1000F0003197F1F70197D9F784E305C0CA9902C097
:1001000087E301C080E024EC39E048EC50E0FA01DC
:100110003197F1F721503040D1F7DE98DF9ADD9A20
:10012000CC990BC084EC99E028EC30E0F9013197D0
:10013000F1F70197D9F782E319C0CB990BC084EC92
:1001400099E028EC30E0F9013197F1F70197D9F700
:1001500085E30CC0CA990AC084EC99E028EC30E031
:10016000F9013197F1F70197D9F788E3DD98DE9A25
:10017000DF9ACC990BC084EC99E028EC30E0F901CF
:100180003197F1F70197D9F783E30895CB990BC025
:1001900084EC99E028EC30E0F9013197F1F7019710
:1001A000D9F786E30895CA990AC084EC99E028EC4F
:1001B00030E0F9013197F1F70197D9F789E3089514
:1001C000AE98AF9A40E157E2FA013197F1F7282F44
:1001D000207F28BBFA013197F1F7AF98FA013197E8
:1001E000F1F7AF9AFA013197F1F790E024E0880F28
:1001F000991F2A95E1F788BBAF98089581E00E9486
:10020000E000089587B3806F87BB84B3806C84BBA4
:1002100088E20E94E00082E00E94E0008FE00E94FD
:10022000E0000E94FE000895AE9AAF9A40E157E2C6
:10023000FA013197F1F7282F207F28BBFA01319777
:10024000F1F7AF98FA013197F1F7AF9AFA013197C8
:10025000F1F790E034E0880F991F3A95E1F788BBF9
:10026000AF980895CF93DF93EC0102C00E94140170
:1002700089918823D9F7DF91CF910895882311F4CC
:1002800080E805C0813011F480EC01C080E0862B4D
:100290000E94E00008950F931F93CF93DF93142FD4
:1002A000052F0E943E01212F302FC901EC0102C011
:1002B0000E94140189918823D9F7DF91CF911F9172
:1002C0000F910895EF92FF920F931F93DF93CF93B7
:1002D000CDB7DEB72A970FB6F894DEBF0FBECDBFFD
:1002E0000E9441000E94020188E20E94E00082E038
:1002F0000E94E0008FE00E94E0000E94FE008FED6F
:100300000E94140180E690E00E94320189E690E0AC
:100310000E94320184EFE82E81E0F82E8E010F5FFB
:100320001F4F81E00E9446009C012E9DC0012F9D21
:10033000900D3E9D900D11246FEF73E00E94B2016D
:10034000CB01B8014AE050E00E94C60180E069E0BC
:10035000A8010E944B0181E060E04BE650E00E9462
:100360004B01DFCFAA1BBB1B51E107C0AA1FBB1F5C
:10037000A617B70710F0A61BB70B881F991F5A9531
:10038000A9F780959095BC01CD010895FB019F01CF
:10039000E8944230C4F04532B4F44A3029F497FB73
:1003A0001EF4909581959F4F642F77270E94B2018C
:1003B000805D8A330CF0895D8193CB010097A1F7B2
:1003C00016F45DE251931082C9010C94E701DC013F
:1003D000FC01672F71917723E1F7329704C07C917C
:1003E0006D9370836291AE17BF07C8F30895F894B8
:0203F000FFCF3D
:1003F20054454D502049532000200049206C6F760F
:0C0402006520456D62656464656400005F
:00000001FF
