:100000000C942A000C943F000C943F000C943F0089
:100010000C943F000C943F000C943F000C943F0064
:100020000C943F000C943F000C943F000C943F0054
:100030000C943F000C943F000C943F000C943F0044
:100040000C943F000C943F000C943F000C943F0034
:100050000C943F0011241FBECFE5D8E0DEBFCDBF1A
:1000600010E0A0E6B0E0E0EDF3E002C005900D92F4
:10007000AE36B107D9F70E9403010C94E6010C9447
:100080000000D498D398D298D79AD69AD59ADC9A69
:10009000DB9ADA9ADF9ADE9ADD9A0895DF98DE9A83
:1000A000DD9ACC9902C081E309C0CB9902C084E3F8
:1000B00005C0CA9902C087E301C080E0E0E1F7E231
:1000C0003197F1F7DE98DF9ADD9ACC9902C082E38E
:1000D00006C0CB9902C085E302C0CA9B88E3E0E179
:1000E000F7E23197F1F7DD98DE9ADF9ACC9902C0FA
:1000F00083E30895CB9902C086E30895CA9B89E300
:100100000895AE98AF9A40E157E2FA013197F1F7BE
:10011000282F207F28BBFA013197F1F7AF98FA0119
:100120003197F1F7AF9AFA013197F1F790E024E0B7
:10013000880F991F2A95E1F788BBAF98089581E051
:100140000E948100089587B3806F87BB84B3806C61
:1001500084BB88E20E94810082E00E9481008CE0E2
:100160000E9481000E949F000895AE9AAF9A40E1DC
:1001700057E2FA013197F1F7282F207F28BBFA01C7
:100180003197F1F7AF98FA013197F1F7AF9AFA0189
:100190003197F1F790E034E0880F991F3A95E1F735
:1001A00088BBAF980895CF93DF93EC0102C00E9403
:1001B000B50089918823D9F7DF91CF9108958823DD
:1001C00011F480E805C0813011F480EC01C080E0BA
:1001D000862B0E94810008950F931F93CF93DF9386
:1001E000142F052F0E94DF00212F302FC901EC01B1
:1001F00002C00E94B50089918823D9F7DF91CF9181
:100200001F910F9108956F927F928F929F92AF925C
:10021000BF92CF92DF92EF92FF920F931F93DF93E3
:10022000CF9300D000D0CDB7DEB78F9A979A1B82BC
:100230001C820E94A30080E690E00E94D3000E94EE
:100240004100EE24FF24CC24DD2498EC692E712C8F
:100250004E010894811C911C83E0A82EB12CAC0E99
:10026000BD1E80E060E043E650E00E94EC000E948A
:100270004E00182F80ED97E0F3013197F1F70197C9
:10028000D9F71123A1F3F401EE0DFF1D10830E2DFC
:1002900081E06E2D0E94DF00812F0E94B50088EB67
:1002A0009BE0F3013197F1F70197D9F781E0602FD7
:1002B0000E94DF008AE20E94B5000894E11CF11C54
:1002C00081E0E816F10471F0C4010E947B016C0129
:1002D000B5014AE050E00E94990181E067E0A50184
:1002E0000E94EC0089E1C816D10409F0BACF82B3AC
:1002F000805882BBB6CFFC0188279927E8942191CA
:100300002032E9F3293010F02E30C8F32B3241F0BF
:100310002D3239F4689404C00E94BA01820F911DF5
:10032000219120532A30C0F31EF4909581959F4F60
:100330000895FB019F01E8944230C4F04532B4F4C3
:100340004A3029F497FB1EF4909581959F4F642FB6
:1003500077270E94D201805D8A330CF0895D8193FA
:10036000CB010097A1F716F45DE251931082C90109
:100370000C94C2017AE0979F902D879F802D910D5C
:1003800011240895DC01FC01672F71917723E1F7B7
:10039000329704C07C916D9370836291AE17BF0752
:1003A000C8F30895AA1BBB1B51E107C0AA1FBB1FBE
:1003B000A617B70710F0A61BB70B881F991F5A95F1
:1003C000A9F780959095BC01CD010895F894FFCFD1
:0E03D000202000456E7465722070696E00007A
:00000001FF
